:020000040800F2
:1000000000100020E51400082D1500082D1500082B
:100010002D1500082D1500082D1500080000000002
:100020000000000000000000000000002D15000886
:100030002D150008000000002D1500082D150008E2
:1000400000000000000000000000000000000000B0
:1000500000000000000000000000000000000000A0
:100060000000000000000000000000000000000090
:100070000000000000000000000000000000000080
:100080000000000000000000000000000000000070
:100090000000000000000000000000000000000060
:1000A0000000000000000000000000000000000050
:1000B0000000000000000000000000000000000040
:1000C0000000000000000000000000000000000030
:1000D0000000000000000000000000000000000020
:1000E0000000000000000000000000000000000010
:1000F0000000000000000000000000000000000000
:1001000000000000000000000000000000000000EF
:1001100000000000000000000000000000000000DF
:1001200000000000000000000000000000000000CF
:1001300000000000000000000000000000000000BF
:1001400000000000000000000000000000000000AF
:10015000000000000000000000000000000000009F
:10016000000000000000000000000000000000008F
:10017000000000000000000000000000000000007F
:08018000000000000000000077
:1001880002B4714649084900095C49008E4402BC22
:100198007047C046002243088B4274D303098B4240
:1001A8005FD3030A8B4244D3030B8B4228D3030C3F
:1001B8008B420DD3FF22090212BA030C8B4202D3E1
:1001C8001212090265D0030B8B4219D300E0090A09
:1001D800C30B8B4201D3CB03C01A5241830B8B4212
:1001E80001D38B03C01A5241430B8B4201D34B03FB
:1001F800C01A5241030B8B4201D30B03C01A524160
:10020800C30A8B4201D3CB02C01A5241830A8B42E4
:1002180001D38B02C01A5241430A8B4201D34B02CD
:10022800C01A5241030A8B4201D30B02C01A524131
:10023800CDD2C3098B4201D3CB01C01A52418309E5
:100248008B4201D38B01C01A524143098B4201D31F
:100258004B01C01A524103098B4201D30B01C01A4A
:100268005241C3088B4201D3CB00C01A52418308C4
:100278008B4201D38B00C01A524143088B4201D3F1
:100288004B00C01A5241411A00D201465241104651
:100298007047FFE701B5002000F006F802BDC04630
:1002A8000029F7D076E770477047C0460448054BE9
:1002B80010B5834203D0044B002B00D0984710BDE3
:1002C8000C0000200C000020000000000648074930
:1002D800091A8B10C90FC91810B5491003D0044B5F
:1002E800002B00D0984710BD0C0000200C00002007
:1002F8000000000010B5074C2378002B09D1FFF748
:10030800D5FF054B002B02D0044800E000BF0123B5
:10031800237010BD34030020000000008C15000875
:10032800054B10B5002B03D00449054800E000BF79
:10033800FFF7CCFF10BDC0460000000038030020C6
:100348008C15000805490B685A035A40530C534052
:10035800580158400860C0B27047C04600000020ED
:100368000300F0B51B2785B0103303930378457855
:100378000193C37881780293019B029C6B401E0015
:10038800DA0952423A405B004C405340019A6640B9
:100398007240534003702B004B40DA0952423A40F6
:1003A8005B00534075406B404370E3095B423B4040
:1003B80064005C4071406140019B81700299594022
:1003C800CA09029B52423A4049005E404A40724084
:1003D800039BC27004308342C8D105B0F0BD000051
:1003E800002800D10148024B18607047A5A5A5A5B3
:1003F80000000020F7B50022184B815C99540132A7
:10040800102AFAD11649174E01910F27D97B1D7B67
:100418005C7B987B00913A420DD101991711CF1955
:10042800013F3978375D8C460099345C705C715DAA
:10043800654600917D401F7800997D401D745D7868
:1004480004326C405C749C7860409874D8780433AB
:100458004140D973B02AD8D1F7BDC0460C0000205E
:10046800A4150008AE150008F0B5CDB00190FFF74F
:1004780069FF0290FFF766FF0390802000234A4D32
:100488000CAC4000029AE95C039E5A40D2B271401B
:100498000133A1548342F5D10024FFF753FF08AB81
:1004A800E054019B04AE1B5D5840A0550134102C4C
:1004B800F3D1320000233D481178C45C0133614018
:1004C80011700132102BF7D10127394B00933200FC
:1004D800002008A90CAC0D78137801306B40029D00
:1004E8006B40DBB2E35C1370039B01320B7001318C
:1004F8001028F0D104AD6A796B786A706A7A08AC12
:100508006A716A7B6B736A72AA7AAB78AA70AA7BE3
:10051800AB72AB79AA71EA7BAB73EB78EA70EA7AD3
:10052800EA73EA79EB71EA72627963786270627AE7
:100538006271627B63736272A378A27AA372A270FB
:10054800A27BA379A271E27BA373E378E270E27ADB
:10055800E273E279E371E2720A2F05D02800FFF70F
:10056800FFFE2000FFF7FCFE009B32001800103051
:1005780000901178080019780133484000991070EC
:1005880001328B42F5D101370B2F01D000939EE742
:100598000023E15CEA5C4A400199CA540133102BFC
:1005A800F7D14DB0F0BDC046AE1500080C000020D4
:1005B8001C00002010B50248FFF712FF10BDC0460E
:1005C80011EEFFC010B5FFF715FF10BD10B5FFF70E
:1005D8004BFF10BD70477047704700207047000000
:1005E800437801781B02034A0B435BBA002013804F
:1005F8007047C0460400002010B5FFF7EDFF00204B
:1006080010BD10B5FFF7DEFF002010BD10B50400C7
:10061800FFF7E0FF00F044FA2000FFF7D7FF00F0F3
:1006280047FA2000FFF7D7FF22001021722000F0C0
:1006380081F9002010BD000070B504000025FFF707
:10064800C9FF0B4B1B88AB4209D82000FFF7C3FF3B
:1006580022001021722000F06DF9002070BD00F01A
:100668001FFA2000FFF7B2FF013500F021FAE8E792
:10067800040000201FB510221949684600F078FFD1
:1006880000F05EF900F088F900F0C6F9FFF792FF74
:100698006846FFF797FF00F0D9F81021114A6B2040
:1006A80000F0CEF81021104A702000F0C9F800219F
:1006B8000E4A782000F0C4F8012312210C4A6D205C
:1006C80000F0A6F802210B4A732000F0B9F81021B7
:1006D8006620094A00F0B4F800F0D0F8FCE7C046FC
:1006E800C11600080B06000815060008E3050008F7
:1006F80001060008E90500084106000801207047C6
:10070800F8B50D0014000F2700F0F2F96519AC4296
:1007180003D10A2000F0ECF9F8BD2378054E1B0937
:10072800F05C00F0E5F9237801343B40F05C00F020
:10073800DFF9ECE7AE16000807B56B46DA1D044B87
:1007480072201B6801211370FFF7DAFF00200EBD2D
:10075800BC000020F0B5104B99B01D686A46002314
:100768000E4EEFB2BB4208DB032169437220C9B2C7
:10077800FFF7C6FF002019B0F0BD032058431C0145
:10078800A15D341911546168247B1018013341703C
:100798008470DBB2E6E7C046BC000020C000002041
:1007A80070B51400A31A984201DC00201FE04D78B0
:1007B8000B782E00303EF6B2092E0CD826701D009C
:1007C800303DEDB2092D15D823782D012B43237028
:1007D80002310134E6E72E00413E052E02D8373DAE
:1007E8002570ECE72E00613E052E01D9012070BD71
:1007F800573DF5E71D00413D052D03D8373B2578CA
:100808001B01E3E71D00613D052DEFD8573BF6E7D7
:10081800F0B5094F06003D6801201F2D0BDC3F296C
:1008280009D8064C280106552018416082600373D8
:10083800002001353D60F0BDBC000020C000002054
:1008480010B50023FFF7E4FF10BD000010B500212C
:10085800074A7620FFF7F4FF0021064A7720FFF7C2
:10086800EFFF00217920044AFFF7EAFF10BDC046D8
:10087800050700085D07000841070008F0B50024D7
:10088800B3B000F01DF9294B294A1B68A3423CDC90
:1008980039D00122264D24012F193B7B134213D056
:1008A8006A460023137200F00BF912AE307000F0A4
:1008B80007F93100707002AA0120FFF771FF0028C4
:1008C80021D16B461B7A7B6000262B195B685B0085
:1008D800B34220D800F0F4F80A2801D00D2812D12C
:1008E8002D196C6802AA200012A9FFF759FF0028E9
:1008F80009D1E1B2AB6802A8984701AA107001219A
:100908007A20FFF7FDFE33B0F0BD2101515C814232
:10091800BFD00134BAE700F0D3F80A28F3D00D2885
:10092800F1D012ABF0540136CFE7C046BC0000202E
:10093800C000002010B5002A01D0FFF7E1FE10BD6D
:10094800902070B5042300240125032696B005A93C
:10095800C005059306950794089600F047FB90207C
:10096800102305A9C005059306950794089600F07D
:100978003DFB05230AA80B930A960D94139400F0E7
:10098800CDF80723210001A801930295039404944C
:1009980000F0A2FA16B070BD802270B51B4C92020E
:1009A800636988B0134363616369902013400193BE
:1009B800019BC023DB00012503260393022303A91F
:1009C800C005049305950795069600F00FFB802255
:1009D800A369D2011343A361A3690D48134002938D
:1009E800029B236BB3431D430A4B25630360962385
:1009F8001B02436000238360C360036183610C337F
:100A0800436100F05DFC08B070BDC04600100240B4
:100A1800C00200200038014080219020F0B5012458
:100A28000025032680271D4B89025A6987B00A438F
:100A38005A615B69C0050B40009301A9009B0197AF
:100A480002940395049600F0D1FA9020102301A98E
:100A5800C005019302940395049600F0C7FA90200C
:100A6800042301A9C005019302940395049600F09C
:100A7800BDFA90202A003900C00500F069FB9020DB
:100A880022001021C00500F063FB90202200042101
:100A9800C00500F05DFB07B0F0BDC0460010024085
:100AA800902010B501228021C00500F051FB10BD37
:100AB800902010B500228021C00500F049FB10BD30
:100AC80037B508246B46DD1D01223223290006486C
:100AD80000F028FC002801D128783EBD034A136A9B
:100AE80023431362EEE7C046C002002000380140ED
:100AF80007B56B46D91D087001220248024B00F069
:100B080087FC07BDC002002088130000024B18684C
:100B1800421C1A607047C04630030020F0B50368D5
:100B2800040085B0DB072FD423689B0700D581E03C
:100B380023681B0700D5BCE023685B0700D5DFE00E
:100B48002368DB061AD562690423B44D012A00D054
:100B580048E1696B02270B436B636B6B1A436A634B
:100B6800FFF7D4FF06006B6B3B4200D133E1F8215D
:100B78006A6BA3698A43DB0013436B63216A00290C
:100B880000D057E100202AE00C22A44D6B681340E6
:100B9800042B06D06B681340082B0AD16B68DB0363
:100BA80007D52B689B03BFD56368002BBCD10120F8
:100BB80015E06368012B14D180232A685B02134374
:100BC8002B60FFF7A3FF80270600BF022B683B427C
:100BD800AAD1FFF79BFF801B6428F7D9032005B033
:100BE800F0BD002B16D12B688D4A802713402B604F
:100BF8002B688C4ABF0213402B60FFF787FF060063
:100C08002B683B4200D18FE7FFF780FF801B6428E9
:100C1800F6D9E3E7052B05D180232A68DB021343C5
:100C28002B60C9E72B687E4A13402B602B687D4AEE
:100C38001340C5E70C22794D6B68134206D06B68E8
:100C48001340082B10D16B68DB030DD42B689B076E
:100C580002D5E368012BAAD1F8212A6823698A43BF
:100C6800DB0013432B6063E7E2680123002A0FD0FF
:100C78002A68022713432B60FFF748FF06002B68FA
:100C88003B42E9D1FFF742FF801B0228F7D9A5E7CD
:100C98002A6802279A432A60FFF738FF06002B6864
:100CA8003B4200D144E7FFF731FF801B0228F6D909
:100CB80094E7E2690123594D002A10D06A6A022795
:100CC80013436B62FFF722FF06006B6A3B4200D0BA
:100CD80032E7FFF71BFF801B0228F6D97EE76A6A16
:100CE80002279A436A62FFF711FF06006B6A3B42CC
:100CF80000D121E7FFF70AFF801B0228F6D96DE72C
:100D080080220021454D5205EB690091134208D11C
:100D1800EB691343EB61EB6913400393039B0123D6
:100D280000938027404E7F0033683B4215D0A3686C
:100D3800012B22D12A6A13432B62FFF7E7FE022711
:100D480006002B6A3B423FD0009B012B00D0F7E600
:100D5800EB69364A1340EB61F2E633683B43336094
:100D6800FFF7D4FE019033683B42E0D1FFF7CEFE97
:100D7800019BC01A6428F6D930E70122002B14D150
:100D88002B6A022793432B622B6A033293432B620D
:100D9800FFF7BCFE06002B6A3B42D5D0FFF7B6FE34
:100DA800234B801B9842F6D918E7052B05D1296AF1
:100DB800013B0B432B622B6ABDE72B6A934304224A
:100DC8002B622B6A9343B7E7FFF7A0FE184B801BF3
:100DD8009842B6D902E7FFF799FE801B022800D88F
:100DE800C1E6FBE6053203D16A6B9A436A63BEE645
:100DF8006A6B0227134301226B636B6B93436B632C
:100E0800FFF784FE06006B6B3B4200D1B6E6FFF7A6
:100E18007DFE801B0228F6D9E0E6C046001002409D
:100E2800FFFFFEFFFFFFFBFF00700040FFFFFFEF2B
:100E3800881300000C22254D6B681340082B00D145
:100E4800B5E62B68224A13402B6002292FD1FFF701
:100E58005DFE80270600BF042B683B4221D10F228C
:100E6800EB6A80269343E26AB6041343EB62616A35
:100E7800A36A6A680B4317490A4013436B608023CF
:100E88002A685B0413432B60FFF740FE04002B68BD
:100E9800334200D076E6FFF739FE001B0228F6D968
:100EA8009CE6FFF733FE801B0228D5D996E6FFF7AC
:100EB8002DFE80260400B6042B68334200D161E67B
:100EC800FFF724FE001B0228F6D987E6001002402F
:100ED800FFFFFFFEFFFFC2FFF7B501223E4D0400F2
:100EE8002B680F0013408B4212D32268930719D442
:100EF800D2071FD401232A681A40BA425DD8236852
:100F08005B0761D4E122354BD20300201A6008E068
:100F18002B6893430B432B602B6813408B42E4D020
:100F28000120FEBDF0202E494B688343A06803438F
:100F38004B60DDE72A4E62683368012A1AD19B03A9
:100F4800EED5032173688B4313437360FFF7DEFD0F
:100F580063680190012B15D10C2273681340042B90
:100F6800C8D0FFF7D3FD019BC01A1E4B9842F3D996
:100F78000320D6E7022A02D19B01E2D4D0E79B07DF
:100F8800DFD4CDE7022B12D00C2273681342B1D004
:100F9800FFF7BCFD019BC01A124B9842F4D9E7E752
:100FA800FFF7B4FD019BC01A0E4B9842E0D80C2203
:100FB80073681340082BF3D19CE72A689A432A6088
:100FC8002A681A429BD0ABE7054A074953680B4089
:100FD800E1680B43536095E70020024008000020B9
:100FE8000010024088130000FFF8FFFF0023F0B54F
:100FF80087B00A681400DC4001D107B0F0BD0126B3
:1010080014009E4034400294324200D192E04A6873
:1010180015000192102295430395022D0FD1072444
:101028000F251C40A400A540DA0892008218176A10
:10103800AF43BC460F69A7406446274317620322A3
:101048005C00A240D543AC46032507689743019A44
:101058002A40A240039D3A43013D0260012D0DD86C
:10106800624685681540CA68A2402A438260019A90
:10107800456812099A40B5432A4342606246C568EA
:1010880015408A68A24080242A43C260019A6405F8
:1010980022424FD00125284A90279469FF052C4306
:1010A800946192699C082A400592059A234AA400F3
:1010B800A4180F2202351D40AD00AA40A668964329
:1010C8000022B8420CD01E4F0132B84208D01D4F42
:1010D8000132B84204D01C4F0332B84200D1023A60
:1010E800AA403243A260194A029C1668029D019FD9
:1010F800E4433543FF0301D43500254015605668A5
:10110800029D019F3543BF0301D43500254055603A
:101118009668029D019F3543FF0201D435002540A2
:101128009560D568029E019F2E43BF0201D42540D9
:101138002E00D66001335CE7001002400000014039
:101148000004004800080048000C00480004014062
:10115800002A01D0816170478162FCE7F7B504007D
:101168000E00170001932568EB6933409B1B5A4218
:101178005341BB4201D0002017E0089B0133F3D054
:10118800089B002B12D12B680C4A032013402B60BC
:10119800AB68A332FF3293432200AB60202369324D
:1011A80013705370002368342370FEBDFFF7AEFC44
:1011B800019BC01A089B9842D5D9E4E75FFEFFFF60
:1011C800030070B59A681D6904682A435D69C1699E
:1011D8002A432068334D0A4328400243226062684C
:1011E80031481D6A0240D868024362609A69A06863
:1011F8002A432E4D2840024303208025A2602C4A12
:101208002D02126B0240013A022A37D82948805C25
:10121800A94214D108280FD8FEF7B2FF320E050EE6
:10122800320E0E0E09005968234B48082CE0596805
:10123800802348085B0227E00120002329E00828D2
:101248001AD8FEF79DFF0F1905190F19191914005F
:1012580059681A4B4808C018FEF79CFF80B2E06036
:1012680000201DE05968E1234808DB03F3E75968CB
:10127800802348081B02EEE7012011E0A942F1D1C2
:101288005968E12348081B04C018FEF783FF83B29E
:10129800002019000F221B0791435B0F0B43E360EB
:1012A80070BDC046F369FFFFFFCFFFFFFFF4FFFFEC
:1012B80000100240BE1600080048E8010024F400AF
:1012C800F8B5041E01D10120F8BD070069373B7845
:1012D800DAB2002B02D1030068331A7024230126E6
:1012E8003B70256820002B68B3432B60FFF768FF2D
:1012F800B042E8D06B680A4A2100134008226B60AC
:10130800AB686A319343AB602B6818321E430023E5
:101318002E60683463603A700A702370D4E7C04660
:10132800FFF7FFFFF0B585B0039303006A3316009B
:101338001A7804000D000220202A3BD10138002928
:1013480038D0002E36D08022A1685201914204D1B3
:101358002269002A01D105422CD122006832117875
:101368000220012926D0012111700022E2662232D2
:101378001A70FFF7CBFB23008021A26858331E8028
:101388005E800290490104338A4217D12269002AFB
:1013980012D11E4A1A8080271E887F0122005A32E5
:1013A800138898B2002B10D1230020226A336834A6
:1013B8001A70207005B0F0BDFF22EBE7002AEAD1D1
:1013C8002269002AF8D07F22E4E713882021013B14
:1013D8009BB21380039B002200932000029BFFF71F
:1013E800BDFE002810D1A2682368BA4207D122693D
:1013F800002A04D19B8C33402B800235CEE79B8C8E
:1014080033402B700135C9E70320D3E7FF01000003
:10141800F0B5070085B0039369373B7804000D00E9
:1014280016000220202B46D10138002943D0002A7B
:1014380041D08023A2685B019A4204D12369002B22
:1014480001D1014237D1230068331A780220012ADA
:1014580031D001221A700023E36621333B70FFF775
:1014680055FB230050331E805E8080260290760153
:10147800210052310B889AB2002B0DD1039B4021D9
:1014880000932000029BFFF769FE002812D1202359
:1014980068343B7020700EE00B880022013B9BB241
:1014A8000B80039B802100932000029BFFF756FED0
:1014B800002802D0032005B0F0BDA3682268B3421B
:1014C80008D12369002B05D12B880235DB05DB0DFC
:1014D8001385CDE72B7801351385C9E7002103E093
:1014E8000B4B5B58435004310A480B4B42189A4245
:1014F800F6D30A4A02E0002313600432084B9A42EA
:10150800F9D300E000BF00F00FF8FFF7B3F8FEE7EB
:10151800DC160008000000200C0000200C00002051
:1015280050030020FEE7000070B500260C4C0D4D5E
:10153800641BA410A64209D1002600F023F80A4C27
:101548000A4D641BA410A64205D170BDB300EB5828
:1015580098470136EEE7B300EB5898470136F2E7B3
:10156800D4160008D4160008D8160008D4160008A7
:10157800002310B59A4200D110BDCC5CC45401338D
:10158800F8E70000F8B5C046F8BC08BC9E467047AE
:0C159800F8B5C046F8BC08BC9E46704781
:1015A40001020408102040801B36637C777BF26BB9
:1015B4006FC53001672BFED7AB76CA82C97DFA5955
:1015C40047F0ADD4A2AF9CA472C0B7FD9326363FBA
:1015D400F7CC34A5E5F171D8311504C723C31896A7
:1015E400059A071280E2EB27B27509832C1A1B6E49
:1015F4005AA0523BD6B329E32F8453D100ED20FCEB
:10160400B15B6ACBBE394A4C58CFD0EFAAFB434DED
:10161400338545F9027F503C9FA851A3408F929D8A
:1016240038F5BCB6DA2110FFF3D2CD0C13EC5F977A
:101634004417C4A77E3D645D197360814FDC222A80
:10164400908846EEB814DE5E0BDBE0323A0A4906B7
:10165400245CC2D3AC629195E479E7C8376D8DD52B
:101664004EA96C56F4EA657AAE08BA78252E1CA603
:10167400B4C6E8DD741F4BBD8B8A703EB566480363
:10168400F60E613557B986C11D9EE1F8981169D9E6
:101694008E949B1E87E9CE5528DF8CA1890DBFE669
:1016A400426841992D0FB054BB1630313233343572
:1016B400363738394142434445460408022B7E15E7
:1016C4001628AED2A6ABF7158809CF4F3C00000010
:0416D40029030008DE
:0416D800FD02000807
:0C16DC00CDAB34120A00000000127A00AE
:04000005080014E5F6
:00000001FF
